{
  "_format": "hh3-artifact-1",
  "contractName": "CLOB",
  "sourceName": "contracts/CLOB.sol",
  "abi": [
    {
      "inputs": [],
      "stateMutability": "nonpayable",
      "type": "constructor"
    },
    {
      "inputs": [
        {
          "internalType": "address",
          "name": "user",
          "type": "address"
        },
        {
          "internalType": "address",
          "name": "token",
          "type": "address"
        }
      ],
      "name": "InsufficientBalance",
      "type": "error"
    },
    {
      "inputs": [
        {
          "internalType": "address",
          "name": "owner",
          "type": "address"
        },
        {
          "internalType": "address",
          "name": "spender",
          "type": "address"
        }
      ],
      "name": "NoAllowance",
      "type": "error"
    },
    {
      "inputs": [],
      "name": "ReentrancyGuardReentrantCall",
      "type": "error"
    },
    {
      "inputs": [
        {
          "internalType": "address",
          "name": "token",
          "type": "address"
        }
      ],
      "name": "TokenNotValid",
      "type": "error"
    },
    {
      "inputs": [],
      "name": "ZeroValue",
      "type": "error"
    },
    {
      "anonymous": false,
      "inputs": [
        {
          "indexed": true,
          "internalType": "address",
          "name": "buyer",
          "type": "address"
        },
        {
          "indexed": true,
          "internalType": "address",
          "name": "seller",
          "type": "address"
        },
        {
          "indexed": false,
          "internalType": "uint256",
          "name": "amount",
          "type": "uint256"
        },
        {
          "indexed": false,
          "internalType": "uint256",
          "name": "timestamp",
          "type": "uint256"
        }
      ],
      "name": "OrderFill",
      "type": "event"
    },
    {
      "anonymous": false,
      "inputs": [
        {
          "indexed": true,
          "internalType": "address",
          "name": "previousOwner",
          "type": "address"
        },
        {
          "indexed": true,
          "internalType": "address",
          "name": "newOwner",
          "type": "address"
        }
      ],
      "name": "OwnershipTransferred",
      "type": "event"
    },
    {
      "inputs": [],
      "name": "GAS_LIMIT",
      "outputs": [
        {
          "internalType": "uint32",
          "name": "",
          "type": "uint32"
        }
      ],
      "stateMutability": "view",
      "type": "function"
    },
    {
      "inputs": [],
      "name": "LAMAL",
      "outputs": [
        {
          "internalType": "address",
          "name": "",
          "type": "address"
        }
      ],
      "stateMutability": "view",
      "type": "function"
    },
    {
      "inputs": [],
      "name": "ORIGAMI",
      "outputs": [
        {
          "internalType": "address",
          "name": "",
          "type": "address"
        }
      ],
      "stateMutability": "view",
      "type": "function"
    },
    {
      "inputs": [
        {
          "internalType": "uint256",
          "name": "buyIdx",
          "type": "uint256"
        },
        {
          "internalType": "uint256",
          "name": "sellIdx",
          "type": "uint256"
        },
        {
          "internalType": "uint256",
          "name": "buyPrice",
          "type": "uint256"
        },
        {
          "internalType": "address",
          "name": "baseToken",
          "type": "address"
        },
        {
          "internalType": "address",
          "name": "quoteToken",
          "type": "address"
        }
      ],
      "name": "_mpTryBuy",
      "outputs": [],
      "stateMutability": "nonpayable",
      "type": "function"
    },
    {
      "inputs": [
        {
          "internalType": "uint256",
          "name": "sellIdx",
          "type": "uint256"
        },
        {
          "internalType": "uint256",
          "name": "buyIdx",
          "type": "uint256"
        },
        {
          "internalType": "uint256",
          "name": "sellPrice",
          "type": "uint256"
        },
        {
          "internalType": "address",
          "name": "baseToken",
          "type": "address"
        },
        {
          "internalType": "address",
          "name": "quoteToken",
          "type": "address"
        }
      ],
      "name": "_mpTrySell",
      "outputs": [],
      "stateMutability": "nonpayable",
      "type": "function"
    },
    {
      "inputs": [],
      "name": "allowedTokens",
      "outputs": [
        {
          "internalType": "contract AddressBooleanMap",
          "name": "",
          "type": "address"
        }
      ],
      "stateMutability": "view",
      "type": "function"
    },
    {
      "inputs": [],
      "name": "getAllBuyOrders",
      "outputs": [
        {
          "internalType": "bytes[]",
          "name": "",
          "type": "bytes[]"
        }
      ],
      "stateMutability": "nonpayable",
      "type": "function"
    },
    {
      "inputs": [],
      "name": "getAllOrders",
      "outputs": [
        {
          "internalType": "bytes[]",
          "name": "",
          "type": "bytes[]"
        }
      ],
      "stateMutability": "nonpayable",
      "type": "function"
    },
    {
      "inputs": [],
      "name": "getAllSellOrders",
      "outputs": [
        {
          "internalType": "bytes[]",
          "name": "",
          "type": "bytes[]"
        }
      ],
      "stateMutability": "nonpayable",
      "type": "function"
    },
    {
      "inputs": [
        {
          "internalType": "address",
          "name": "user",
          "type": "address"
        }
      ],
      "name": "getUserOrders",
      "outputs": [
        {
          "internalType": "bytes[]",
          "name": "",
          "type": "bytes[]"
        }
      ],
      "stateMutability": "nonpayable",
      "type": "function"
    },
    {
      "inputs": [],
      "name": "owner",
      "outputs": [
        {
          "internalType": "address",
          "name": "",
          "type": "address"
        }
      ],
      "stateMutability": "view",
      "type": "function"
    },
    {
      "inputs": [
        {
          "internalType": "bytes",
          "name": "_data",
          "type": "bytes"
        }
      ],
      "name": "placeOrder",
      "outputs": [],
      "stateMutability": "nonpayable",
      "type": "function"
    },
    {
      "inputs": [],
      "name": "renounceOwnership",
      "outputs": [],
      "stateMutability": "nonpayable",
      "type": "function"
    },
    {
      "inputs": [
        {
          "internalType": "address",
          "name": "newOwner",
          "type": "address"
        }
      ],
      "name": "transferOwnership",
      "outputs": [],
      "stateMutability": "nonpayable",
      "type": "function"
    }
  ],
  "bytecode": "0x60806040526040516200001290620003e0565b604051809103906000f0801580156200002f573d6000803e3d6000fd5b50600160006101000a8154816001600160a01b0302191690836001600160a01b0316021790555060006000196040516200006990620003ee565b9182526020820152604001604051809103906000f08015801562000091573d6000803e3d6000fd5b50600280546001600160a01b0319166001600160a01b0392909216919091179055604051620000c090620003e0565b604051809103906000f080158015620000dd573d6000803e3d6000fd5b50600360006101000a8154816001600160a01b0302191690836001600160a01b0316021790555060006000196040516200011790620003ee565b9182526020820152604001604051809103906000f0801580156200013f573d6000803e3d6000fd5b50600480546001600160a01b0319166001600160a01b03929092169190911790556040516200016e90620003e0565b604051809103906000f0801580156200018b573d6000803e3d6000fd5b50600560006101000a8154816001600160a01b0302191690836001600160a01b031602179055506000600019604051620001c590620003ee565b9182526020820152604001604051809103906000f080158015620001ed573d6000803e3d6000fd5b50600680546001600160a01b0319166001600160a01b03929092169190911790556040516200021c90620003fc565b604051809103906000f08015801562000239573d6000803e3d6000fd5b50600880546001600160a01b0319166001600160a01b03929092169190911790553480156200026757600080fd5b50620002733362000390565b60017f9b779b17422d0df92223018b32b4d1fa46e071723d6817e2486d003becc55f0055600854604051631af1d92d60e11b815273d167957474234d33eaa76526ded297626151e1a56004820152600160248201526001600160a01b03909116906335e3b25a90604401600060405180830381600087803b158015620002f857600080fd5b505af11580156200030d573d6000803e3d6000fd5b5050600854604051631af1d92d60e11b8152725f9d345a264582028bcc5ed5e1cbbed444e9c86004820152600160248201526001600160a01b0390911692506335e3b25a9150604401600060405180830381600087803b1580156200037157600080fd5b505af115801562000386573d6000803e3d6000fd5b505050506200040a565b600080546001600160a01b038381166001600160a01b0319831681178455604051919092169283917f8be0079c531659141344cd1fd0a4f28419497f9722a3daafe3b4186f6b6457e09190a35050565b6110108062003ced83390190565b6105498062004cfd83390190565b611278806200524683390190565b6138d3806200041a6000396000f3fe60806040523480156200001157600080fd5b5060043610620000fd5760003560e01c8063730412e81162000097578063bcf78121116200006e578063bcf7812114620001ec578063e3dd4e131462000203578063f2fde38b146200021a578063f7c7338a146200023157600080fd5b8063730412e814620001c65780637bea0d1c14620001d05780638da5cb5b14620001da57600080fd5b806363c69f0811620000d857806363c69f08146200016c5780636a85cc7e14620001835780636b3b9522146200019e578063715018a614620001ba57600080fd5b8063091d278814620001025780632e98613e14620001265780635284d6d0146200013f575b600080fd5b6200010c61c35081565b60405163ffffffff90911681526020015b60405180910390f35b6200013062000248565b6040516200011d919062002ac3565b60085462000153906001600160a01b031681565b6040516001600160a01b0390911681526020016200011d565b620001306200017d36600462002b51565b620003ce565b62000153725f9d345a264582028bcc5ed5e1cbbed444e9c881565b6200015373d167957474234d33eaa76526ded297626151e1a581565b620001c4620005a3565b005b62000130620005bb565b6200013062000747565b6000546001600160a01b031662000153565b620001c4620001fd36600462002b78565b620008d3565b620001c46200021436600462002bd3565b62001100565b620001c46200022b36600462002b51565b620015da565b620001c46200024236600462002b78565b6200165d565b6004805460408051631b53398f60e21b815290516060936000936001600160a01b031692636d4ce63c92818301926020928290030181865afa15801562000293573d6000803e3d6000fd5b505050506040513d601f19601f82011682018060405250810190620002b9919062002c4a565b905060008167ffffffffffffffff811115620002d957620002d962002c64565b6040519080825280602002602001820160405280156200030e57816020015b6060815260200190600190039081620002f85790505b50905060005b82811015620003c757600354604051634a83e9cd60e11b8152600481018390526001600160a01b0390911690639507d39a906024016000604051808303816000875af115801562000369573d6000803e3d6000fd5b505050506040513d6000823e601f3d908101601f1916820160405262000393919081019062002d39565b828281518110620003a857620003a862002d7a565b602002602001018190525080620003bf9062002da6565b905062000314565b5092915050565b6001600160a01b038082166000908152600760205260409020546060911680620004275760408051600080825260208201909252906200041f565b6060815260200190600190039081620004095790505b509392505050565b6000816001600160a01b031663ad1b9f146040518163ffffffff1660e01b81526004016020604051808303816000875af11580156200046a573d6000803e3d6000fd5b505050506040513d601f19601f8201168201806040525081019062000490919062002c4a565b905060008167ffffffffffffffff811115620004b057620004b062002c64565b604051908082528060200260200182016040528015620004e557816020015b6060815260200190600190039081620004cf5790505b50905060005b828110156200059a57604051634a83e9cd60e11b8152600481018290526001600160a01b03851690639507d39a906024016000604051808303816000875af11580156200053c573d6000803e3d6000fd5b505050506040513d6000823e601f3d908101601f1916820160405262000566919081019062002d39565b8282815181106200057b576200057b62002d7a565b602002602001018190525080620005929062002da6565b9050620004eb565b50949350505050565b620005ad62001dca565b620005b9600062001e26565b565b60606000600660009054906101000a90046001600160a01b03166001600160a01b0316636d4ce63c6040518163ffffffff1660e01b8152600401602060405180830381865afa15801562000613573d6000803e3d6000fd5b505050506040513d601f19601f8201168201806040525081019062000639919062002c4a565b905060008167ffffffffffffffff81111562000659576200065962002c64565b6040519080825280602002602001820160405280156200068e57816020015b6060815260200190600190039081620006785790505b50905060005b82811015620003c757600554604051634a83e9cd60e11b8152600481018390526001600160a01b0390911690639507d39a906024016000604051808303816000875af1158015620006e9573d6000803e3d6000fd5b505050506040513d6000823e601f3d908101601f1916820160405262000713919081019062002d39565b82828151811062000728576200072862002d7a565b6020026020010181905250806200073f9062002da6565b905062000694565b60606000600260009054906101000a90046001600160a01b03166001600160a01b0316636d4ce63c6040518163ffffffff1660e01b8152600401602060405180830381865afa1580156200079f573d6000803e3d6000fd5b505050506040513d601f19601f82011682018060405250810190620007c5919062002c4a565b905060008167ffffffffffffffff811115620007e557620007e562002c64565b6040519080825280602002602001820160405280156200081a57816020015b6060815260200190600190039081620008045790505b50905060005b82811015620003c757600154604051634a83e9cd60e11b8152600481018390526001600160a01b0390911690639507d39a906024016000604051808303816000875af115801562000875573d6000803e3d6000fd5b505050506040513d6000823e601f3d908101601f191682016040526200089f919081019062002d39565b828281518110620008b457620008b462002d7a565b602002602001018190525080620008cb9062002da6565b905062000820565b6004805460408051631b53398f60e21b815290516001600160a01b0390921692636d4ce63c9282820192602092908290030181865afa1580156200091b573d6000803e3d6000fd5b505050506040513d601f19601f8201168201806040525081019062000941919062002c4a565b841015620010f957600660009054906101000a90046001600160a01b03166001600160a01b0316636d4ce63c6040518163ffffffff1660e01b8152600401602060405180830381865afa1580156200099d573d6000803e3d6000fd5b505050506040513d601f19601f82011682018060405250810190620009c3919062002c4a565b851015620010f957600554604051634a83e9cd60e11b8152600481018790526000916001600160a01b031690639507d39a906024016000604051808303816000875af115801562000a18573d6000803e3d6000fd5b505050506040513d6000823e601f3d908101601f1916820160405262000a42919081019062002d39565b80602001905181019062000a57919062002deb565b600354604051634a83e9cd60e11b8152600481018890529192506000916001600160a01b0390911690639507d39a906024016000604051808303816000875af115801562000aa9573d6000803e3d6000fd5b505050506040513d6000823e601f3d908101601f1916820160405262000ad3919081019062002d39565b80602001905181019062000ae8919062002deb565b9050848160a001511015801562000b03575060008260c00151115b801562000b14575060008160c00151115b801562000b365750836001600160a01b031681604001516001600160a01b0316145b801562000b585750826001600160a01b031681606001516001600160a01b0316145b15620010f65762000b6a868862001e76565b8060c0015160000362000e30576003546004805460408051631b53398f60e21b815290516001600160a01b0394851694638b282947948c948794639507d39a9460019490921692636d4ce63c9282820192602092908290030181865afa15801562000bd9573d6000803e3d6000fd5b505050506040513d601f19601f8201168201806040525081019062000bff919062002c4a565b62000c0b919062002e85565b6040518263ffffffff1660e01b815260040162000c2a91815260200190565b6000604051808303816000875af115801562000c4a573d6000803e3d6000fd5b505050506040513d6000823e601f3d908101601f1916820160405262000c74919081019062002d39565b6040518363ffffffff1660e01b815260040162000c9392919062002e9b565b600060405180830381600087803b15801562000cae57600080fd5b505af115801562000cc3573d6000803e3d6000fd5b50505050600360009054906101000a90046001600160a01b03166001600160a01b0316630be0c6d56040518163ffffffff1660e01b81526004016000604051808303816000875af115801562000d1d573d6000803e3d6000fd5b505050506040513d6000823e601f3d908101601f1916820160405262000d47919081019062002d39565b50600480546040516313f72c5360e11b81526001928101929092526001600160a01b0316906327ee58a6906024016020604051808303816000875af115801562000d95573d6000803e3d6000fd5b505050506040513d601f19601f8201168201806040525081019062000dbb919062002eb6565b506002546040516313f72c5360e11b8152600160048201526001600160a01b03909116906327ee58a6906024016020604051808303816000875af115801562000e08573d6000803e3d6000fd5b505050506040513d601f19601f8201168201806040525081019062000e2e919062002eb6565b505b8160c00151600003620010f65760055460065460408051631b53398f60e21b815290516001600160a01b0393841693638b282947938c938693639507d39a936001931691636d4ce63c9160048083019260209291908290030181865afa15801562000e9f573d6000803e3d6000fd5b505050506040513d601f19601f8201168201806040525081019062000ec5919062002c4a565b62000ed1919062002e85565b6040518263ffffffff1660e01b815260040162000ef091815260200190565b6000604051808303816000875af115801562000f10573d6000803e3d6000fd5b505050506040513d6000823e601f3d908101601f1916820160405262000f3a919081019062002d39565b6040518363ffffffff1660e01b815260040162000f5992919062002e9b565b600060405180830381600087803b15801562000f7457600080fd5b505af115801562000f89573d6000803e3d6000fd5b50505050600560009054906101000a90046001600160a01b03166001600160a01b0316630be0c6d56040518163ffffffff1660e01b81526004016000604051808303816000875af115801562000fe3573d6000803e3d6000fd5b505050506040513d6000823e601f3d908101601f191682016040526200100d919081019062002d39565b506006546040516313f72c5360e11b8152600160048201526001600160a01b03909116906327ee58a6906024015b6020604051808303816000875af11580156200105b573d6000803e3d6000fd5b505050506040513d601f19601f8201168201806040525081019062001081919062002eb6565b506002546040516313f72c5360e11b8152600160048201526001600160a01b03909116906327ee58a6906024016020604051808303816000875af1158015620010ce573d6000803e3d6000fd5b505050506040513d601f19601f82011682018060405250810190620010f4919062002eb6565b505b50505b5050505050565b6200110a6200257c565b60006200111a8284018462002ee3565b90506200112b8160c00151620025ac565b6200113a8160a00151620025ac565b620011498160400151620025ce565b620011588160600151620025ce565b600154604051637dacda0360e01b81526001600160a01b0390911690637dacda03906200118c908690869060040162002f7d565b600060405180830381600087803b158015620011a757600080fd5b505af1158015620011bc573d6000803e3d6000fd5b5050600254604051630801f16960e11b8152600160048201526001600160a01b039091169250631003e2d291506024016020604051808303816000875af11580156200120c573d6000803e3d6000fd5b505050506040513d601f19601f8201168201806040525081019062001232919062002eb6565b50806080015115620013205760048054604051630801f16960e11b81526001928101929092526001600160a01b031690631003e2d2906024016020604051808303816000875af11580156200128b573d6000803e3d6000fd5b505050506040513d601f19601f82011682018060405250810190620012b1919062002eb6565b50600354604051637dacda0360e01b81526001600160a01b0390911690637dacda0390620012e6908690869060040162002f7d565b600060405180830381600087803b1580156200130157600080fd5b505af115801562001316573d6000803e3d6000fd5b50505050620013fc565b600654604051630801f16960e11b8152600160048201526001600160a01b0390911690631003e2d2906024016020604051808303816000875af11580156200136c573d6000803e3d6000fd5b505050506040513d601f19601f8201168201806040525081019062001392919062002eb6565b50600554604051637dacda0360e01b81526001600160a01b0390911690637dacda0390620013c7908690869060040162002f7d565b600060405180830381600087803b158015620013e257600080fd5b505af1158015620013f7573d6000803e3d6000fd5b505050505b600081608001516200148b5760065460408051631b53398f60e21b815290516001926001600160a01b031691636d4ce63c9160048083019260209291908290030181865afa15801562001453573d6000803e3d6000fd5b505050506040513d601f19601f8201168201806040525081019062001479919062002c4a565b62001485919062002e85565b62001513565b6001600460009054906101000a90046001600160a01b03166001600160a01b0316636d4ce63c6040518163ffffffff1660e01b8152600401602060405180830381865afa158015620014e1573d6000803e3d6000fd5b505050506040513d601f19601f8201168201806040525081019062001507919062002c4a565b62001513919062002e85565b9050620015348260800151828460a00151856040015186606001516200266b565b3360009081526007602052604090819020549051637dacda0360e01b81526001600160a01b0390911690637dacda039062001576908790879060040162002f7d565b600060405180830381600087803b1580156200159157600080fd5b505af1158015620015a6573d6000803e3d6000fd5b505050505050620015d660017f9b779b17422d0df92223018b32b4d1fa46e071723d6817e2486d003becc55f0055565b5050565b620015e462001dca565b6001600160a01b0381166200164f5760405162461bcd60e51b815260206004820152602660248201527f4f776e61626c653a206e6577206f776e657220697320746865207a65726f206160448201526564647265737360d01b60648201526084015b60405180910390fd5b6200165a8162001e26565b50565b600660009054906101000a90046001600160a01b03166001600160a01b0316636d4ce63c6040518163ffffffff1660e01b8152600401602060405180830381865afa158015620016b1573d6000803e3d6000fd5b505050506040513d601f19601f82011682018060405250810190620016d7919062002c4a565b841015620010f9576004805460408051631b53398f60e21b815290516001600160a01b0390921692636d4ce63c9282820192602092908290030181865afa15801562001727573d6000803e3d6000fd5b505050506040513d601f19601f820116820180604052508101906200174d919062002c4a565b851015620010f957600354604051634a83e9cd60e11b8152600481018790526000916001600160a01b031690639507d39a906024016000604051808303816000875af1158015620017a2573d6000803e3d6000fd5b505050506040513d6000823e601f3d908101601f19168201604052620017cc919081019062002d39565b806020019051810190620017e1919062002deb565b600554604051634a83e9cd60e11b8152600481018890529192506000916001600160a01b0390911690639507d39a906024016000604051808303816000875af115801562001833573d6000803e3d6000fd5b505050506040513d6000823e601f3d908101601f191682016040526200185d919081019062002d39565b80602001905181019062001872919062002deb565b9050848160a00151111580156200188d575060008260c00151115b80156200189e575060008160c00151115b8015620018c05750836001600160a01b031681604001516001600160a01b0316145b8015620018e25750826001600160a01b031681606001516001600160a01b0316145b15620010f657620018f4878762001e76565b8060c0015160000362001bb95760055460065460408051631b53398f60e21b815290516001600160a01b0393841693638b282947938b938693639507d39a936001931691636d4ce63c9160048083019260209291908290030181865afa15801562001963573d6000803e3d6000fd5b505050506040513d601f19601f8201168201806040525081019062001989919062002c4a565b62001995919062002e85565b6040518263ffffffff1660e01b8152600401620019b491815260200190565b6000604051808303816000875af1158015620019d4573d6000803e3d6000fd5b505050506040513d6000823e601f3d908101601f19168201604052620019fe919081019062002d39565b6040518363ffffffff1660e01b815260040162001a1d92919062002e9b565b600060405180830381600087803b15801562001a3857600080fd5b505af115801562001a4d573d6000803e3d6000fd5b50505050600560009054906101000a90046001600160a01b03166001600160a01b0316630be0c6d56040518163ffffffff1660e01b81526004016000604051808303816000875af115801562001aa7573d6000803e3d6000fd5b505050506040513d6000823e601f3d908101601f1916820160405262001ad1919081019062002d39565b506006546040516313f72c5360e11b8152600160048201526001600160a01b03909116906327ee58a6906024016020604051808303816000875af115801562001b1e573d6000803e3d6000fd5b505050506040513d601f19601f8201168201806040525081019062001b44919062002eb6565b506002546040516313f72c5360e11b8152600160048201526001600160a01b03909116906327ee58a6906024016020604051808303816000875af115801562001b91573d6000803e3d6000fd5b505050506040513d601f19601f8201168201806040525081019062001bb7919062002eb6565b505b8160c00151600003620010f6576003546004805460408051631b53398f60e21b815290516001600160a01b0394851694638b282947948d948794639507d39a9460019490921692636d4ce63c9282820192602092908290030181865afa15801562001c28573d6000803e3d6000fd5b505050506040513d601f19601f8201168201806040525081019062001c4e919062002c4a565b62001c5a919062002e85565b6040518263ffffffff1660e01b815260040162001c7991815260200190565b6000604051808303816000875af115801562001c99573d6000803e3d6000fd5b505050506040513d6000823e601f3d908101601f1916820160405262001cc3919081019062002d39565b6040518363ffffffff1660e01b815260040162001ce292919062002e9b565b600060405180830381600087803b15801562001cfd57600080fd5b505af115801562001d12573d6000803e3d6000fd5b50505050600360009054906101000a90046001600160a01b03166001600160a01b0316630be0c6d56040518163ffffffff1660e01b81526004016000604051808303816000875af115801562001d6c573d6000803e3d6000fd5b505050506040513d6000823e601f3d908101601f1916820160405262001d96919081019062002d39565b50600480546040516313f72c5360e11b81526001928101929092526001600160a01b0316906327ee58a6906024016200103b565b6000546001600160a01b03163314620005b95760405162461bcd60e51b815260206004820181905260248201527f4f776e61626c653a2063616c6c6572206973206e6f7420746865206f776e6572604482015260640162001646565b600080546001600160a01b038381166001600160a01b0319831681178455604051919092169283917f8be0079c531659141344cd1fd0a4f28419497f9722a3daafe3b4186f6b6457e09190a35050565b600354604051634a83e9cd60e11b8152600481018490526000916001600160a01b031690639507d39a906024016000604051808303816000875af115801562001ec3573d6000803e3d6000fd5b505050506040513d6000823e601f3d908101601f1916820160405262001eed919081019062002d39565b80602001905181019062001f02919062002deb565b600554604051634a83e9cd60e11b8152600481018590529192506000916001600160a01b0390911690639507d39a906024016000604051808303816000875af115801562001f54573d6000803e3d6000fd5b505050506040513d6000823e601f3d908101601f1916820160405262001f7e919081019062002d39565b80602001905181019062001f93919062002deb565b9050600062001fab8360c001518360c0015162002a02565b9050808360c00181815162001fc1919062002e85565b90525060c08201805182919062001fda90839062002e85565b9052506003546040516001600160a01b0390911690638b2829479087906200200790879060200162002fac565b6040516020818303038152906040526040518363ffffffff1660e01b81526004016200203592919062002e9b565b600060405180830381600087803b1580156200205057600080fd5b505af115801562002065573d6000803e3d6000fd5b50506005546040516001600160a01b039091169250638b282947915086906200209390869060200162002fac565b6040516020818303038152906040526040518363ffffffff1660e01b8152600401620020c192919062002e9b565b600060405180830381600087803b158015620020dc57600080fd5b505af1158015620020f1573d6000803e3d6000fd5b505050506040838101516060850151602085015192516370a0823160e01b81526001600160a01b0393841660048201529192909184918416906370a0823190602401602060405180830381865afa15801562002151573d6000803e3d6000fd5b505050506040513d601f19601f8201168201806040525081019062002177919062002c4a565b1015620021b1576020840151604051630a542ddd60e31b81526001600160a01b039182166004820152908316602482015260440162001646565b6020840151604051636eb1769f60e11b81526001600160a01b039182166004820152306024820152849184169063dd62ed3e90604401602060405180830381865afa15801562002205573d6000803e3d6000fd5b505050506040513d601f19601f820116820180604052508101906200222b919062002c4a565b10156200226357602084015160405163227d9f4360e11b81526001600160a01b03909116600482015230602482015260440162001646565b602084810151908601516040516323b872dd60e01b81526001600160a01b039283166004820152908216602482015260448101859052908316906323b872dd906064016020604051808303816000875af1158015620022c6573d6000803e3d6000fd5b505050506040513d601f19601f82011682018060405250810190620022ec919062002eb6565b5060a0840151620022fe908462003017565b60208601516040516370a0823160e01b81526001600160a01b039182166004820152908316906370a0823190602401602060405180830381865afa1580156200234b573d6000803e3d6000fd5b505050506040513d601f19601f8201168201806040525081019062002371919062002c4a565b1015620023ab576020850151604051630a542ddd60e31b81526001600160a01b039182166004820152908216602482015260440162001646565b60a0840151620023bc908462003017565b6020860151604051636eb1769f60e11b81526001600160a01b0391821660048201523060248201529083169063dd62ed3e90604401602060405180830381865afa1580156200240f573d6000803e3d6000fd5b505050506040513d601f19601f8201168201806040525081019062002435919062002c4a565b10156200246d57602085015160405163227d9f4360e11b81526001600160a01b03909116600482015230602482015260440162001646565b806001600160a01b03166323b872dd866020015186602001518760a001518762002498919062003017565b6040516001600160e01b031960e086901b1681526001600160a01b03938416600482015292909116602483015260448201526064016020604051808303816000875af1158015620024ed573d6000803e3d6000fd5b505050506040513d601f19601f8201168201806040525081019062002513919062002eb6565b5083602001516001600160a01b031685602001516001600160a01b03167fdd95d42fa17330505ba5afba2efc319574a236f0b86ae580fb1a4a60c8bbc9ff85426040516200256b929190918252602082015260400190565b60405180910390a350505050505050565b6200258662002a1e565b60027f9b779b17422d0df92223018b32b4d1fa46e071723d6817e2486d003becc55f0055565b806000036200165a57604051637c946ed760e01b815260040160405180910390fd5b6008546040516330af0bbf60e21b81526001600160a01b0383811660048301529091169063c2bc2efc906024016020604051808303816000875af11580156200261b573d6000803e3d6000fd5b505050506040513d601f19601f8201168201806040525081019062002641919062002eb6565b6200165a5760405163443254a160e01b81526001600160a01b038216600482015260240162001646565b600085620026e7576004805460408051631b53398f60e21b815290516001600160a01b0390921692636d4ce63c9282820192602092908290030181865afa158015620026bb573d6000803e3d6000fd5b505050506040513d601f19601f82011682018060405250810190620026e1919062002c4a565b62002761565b600660009054906101000a90046001600160a01b03166001600160a01b0316636d4ce63c6040518163ffffffff1660e01b8152600401602060405180830381865afa1580156200273b573d6000803e3d6000fd5b505050506040513d601f19601f8201168201806040525081019062002761919062002c4a565b905080600003620027735750620010f9565b600081604051620027849062002a61565b908152602001604051809103906000f080158015620027a7573d6000803e3d6000fd5b50905060005b828110156200298b5787156200289d576040516024810188905260448101829052606481018790526001600160a01b03868116608483015285811660a483015283169063ffdcacba9061c35090600090309060c40160408051601f198184030181529181526020820180516001600160e01b0316637be399c560e11b1790525160e086901b6001600160e01b031916815262002850949392919060040162003031565b6020604051808303816000875af115801562002870573d6000803e3d6000fd5b505050506040513d601f19601f8201168201806040525081019062002896919062002eb6565b5062002978565b6040516024810188905260448101829052606481018790526001600160a01b03868116608483015285811660a483015283169063ffdcacba9061c35090600090309060c40160408051601f198184030181529181526020820180516001600160e01b031663bcf7812160e01b1790525160e086901b6001600160e01b031916815262002930949392919060040162003031565b6020604051808303816000875af115801562002950573d6000803e3d6000fd5b505050506040513d601f19601f8201168201806040525081019062002976919062002eb6565b505b620029838162002da6565b9050620027ad565b50806001600160a01b031663c04062266040518163ffffffff1660e01b81526004016000604051808303816000875af1158015620029cd573d6000803e3d6000fd5b505050506040513d6000823e601f3d908101601f19168201604052620029f7919081019062003066565b505050505050505050565b600081831062002a13578162002a15565b825b90505b92915050565b7f9b779b17422d0df92223018b32b4d1fa46e071723d6817e2486d003becc55f0054600203620005b957604051633ee5aeb560e01b815260040160405180910390fd5b6107e080620030be83390190565b60005b8381101562002a8c57818101518382015260200162002a72565b50506000910152565b6000815180845262002aaf81602086016020860162002a6f565b601f01601f19169290920160200192915050565b6000602080830181845280855180835260408601915060408160051b870101925083870160005b8281101562002b1c57603f1988860301845262002b0985835162002a95565b9450928501929085019060010162002aea565b5092979650505050505050565b6001600160a01b03811681146200165a57600080fd5b803562002b4c8162002b29565b919050565b60006020828403121562002b6457600080fd5b813562002b718162002b29565b9392505050565b600080600080600060a0868803121562002b9157600080fd5b853594506020860135935060408601359250606086013562002bb38162002b29565b9150608086013562002bc58162002b29565b809150509295509295909350565b6000806020838503121562002be757600080fd5b823567ffffffffffffffff8082111562002c0057600080fd5b818501915085601f83011262002c1557600080fd5b81358181111562002c2557600080fd5b86602082850101111562002c3857600080fd5b60209290920196919550909350505050565b60006020828403121562002c5d57600080fd5b5051919050565b634e487b7160e01b600052604160045260246000fd5b604051610100810167ffffffffffffffff8111828210171562002ca15762002ca162002c64565b60405290565b600082601f83011262002cb957600080fd5b815167ffffffffffffffff8082111562002cd75762002cd762002c64565b604051601f8301601f19908116603f0116810190828211818310171562002d025762002d0262002c64565b8160405283815286602085880101111562002d1c57600080fd5b62002d2f84602083016020890162002a6f565b9695505050505050565b60006020828403121562002d4c57600080fd5b815167ffffffffffffffff81111562002d6457600080fd5b62002d728482850162002ca7565b949350505050565b634e487b7160e01b600052603260045260246000fd5b634e487b7160e01b600052601160045260246000fd5b60006001820162002dbb5762002dbb62002d90565b5060010190565b805162002b4c8162002b29565b80151581146200165a57600080fd5b805162002b4c8162002dcf565b6000610100828403121562002dff57600080fd5b62002e0962002c7a565b82518152602083015162002e1d8162002b29565b6020820152604083015162002e328162002b29565b604082015262002e456060840162002dc2565b606082015262002e586080840162002dde565b608082015260a083015160a082015260c083015160c082015260e083015160e08201528091505092915050565b8181038181111562002a185762002a1862002d90565b82815260406020820152600062002d72604083018462002a95565b60006020828403121562002ec957600080fd5b815162002b718162002dcf565b803562002b4c8162002dcf565b6000610100828403121562002ef757600080fd5b62002f0162002c7a565b82358152602083013562002f158162002b29565b6020820152604083013562002f2a8162002b29565b604082015262002f3d6060840162002b3f565b606082015262002f506080840162002ed6565b608082015260a083013560a082015260c083013560c082015260e083013560e08201528091505092915050565b60208152816020820152818360408301376000818301604090810191909152601f909201601f19160101919050565b60006101008201905082518252602083015160018060a01b038082166020850152806040860151166040850152806060860151166060850152505060808301511515608083015260a083015160a083015260c083015160c083015260e083015160e083015292915050565b808202811582820484141762002a185762002a1862002d90565b63ffffffff8516815283602082015260018060a01b038316604082015260806060820152600062002d2f608083018462002a95565b600080604083850312156200307a57600080fd5b8251620030878162002dcf565b602084015190925067ffffffffffffffff811115620030a557600080fd5b620030b38582860162002ca7565b915050925092905056fe60806040526001805534801561001457600080fd5b506040516107e03803806107e0833981016040819052610033916100f8565b600080546001600160a01b03191660b09081178255604051606b602482018190526044820184905292908190839060640160408051601f198184030181529181526020820180516001600160e01b031663b613002b60e01b179052516100999190610111565b6000604051808303816000865af19150503d80600081146100d6576040519150601f19603f3d011682016040523d82523d6000602084013e6100db565b606091505b50509050806100e957600080fd5b50505060019190915550610140565b60006020828403121561010a57600080fd5b5051919050565b6000825160005b818110156101325760208186018101518583015201610118565b506000920191825250919050565b6106918061014f6000396000f3fe608060405234801561001057600080fd5b50600436106100575760003560e01c80637d7b00991461005c578063af31b18b1461008c578063c0406226146100a2578063c767f36f146100b8578063ffdcacba146100cb575b600080fd5b60005461006f906001600160a01b031681565b6040516001600160a01b0390911681526020015b60405180910390f35b6100946100ee565b604051908152602001610083565b6100aa610142565b60405161008392919061043d565b6100aa6100c6366004610503565b61023f565b6100de6100d9366004610538565b6102e2565b6040519015158152602001610083565b6040805160048152602481019091526020810180516001600160e01b031663af31b18b60e01b17905260009081906101259061023f565b9150508080602001905181019061013c91906105a7565b91505090565b60008054600154604080516020810192909252606092849283926001600160a01b03909216910160408051601f1981840301815290829052610186916024016105c0565b60408051601f198184030181529181526020820180516001600160e01b031663a651425960e01b179052516101bb91906105da565b6000604051808303816000865af19150503d80600081146101f8576040519150601f19603f3d011682016040523d82523d6000602084013e6101fd565b606091505b506040805160048152602481019091526020810180516001600160e01b0316632977f53760e11b17905291935091506102359061023f565b5094909350915050565b600080546040516060916001600160a01b0316906102619085906024016105c0565b60408051601f198184030181529181526020820180516001600160e01b031663c767f36f60e01b1790525161029691906105da565b6000604051808303816000865af19150503d80600081146102d3576040519150601f19603f3d011682016040523d82523d6000602084013e6102d8565b606091505b5091509150915091565b600080858585856040516020016102fc94939291906105f6565b6040516020818303038152906040529050600061035b61031a610367565b8360405160240161032c92919061062d565b60408051601f198184030181529190526020810180516001600160e01b031663456a75fb60e11b17905261023f565b50979650505050505050565b60408051600481526024810182526020810180516001600160e01b031663bb07e85d60e01b179052905160609160009160a0916103a3916105da565b6000604051808303816000865af19150503d80600081146103e0576040519150601f19603f3d011682016040523d82523d6000602084013e6103e5565b606091505b509392505050565b60005b838110156104085781810151838201526020016103f0565b50506000910152565b600081518084526104298160208601602086016103ed565b601f01601f19169290920160200192915050565b82151581526040602082015260006104586040830184610411565b949350505050565b634e487b7160e01b600052604160045260246000fd5b600082601f83011261048757600080fd5b813567ffffffffffffffff808211156104a2576104a2610460565b604051601f8301601f19908116603f011681019082821181831017156104ca576104ca610460565b816040528381528660208588010111156104e357600080fd5b836020870160208301376000602085830101528094505050505092915050565b60006020828403121561051557600080fd5b813567ffffffffffffffff81111561052c57600080fd5b61045884828501610476565b6000806000806080858703121561054e57600080fd5b843593506020850135925060408501356001600160a01b038116811461057357600080fd5b9150606085013567ffffffffffffffff81111561058f57600080fd5b61059b87828801610476565b91505092959194509250565b6000602082840312156105b957600080fd5b5051919050565b6020815260006105d36020830184610411565b9392505050565b600082516105ec8184602087016103ed565b9190910192915050565b84815283602082015260018060a01b03831660408201526080606082015260006106236080830184610411565b9695505050505050565b6040815260006106406040830185610411565b82810360208401526106528185610411565b9594505050505056fea264697066735822122098be1acd5692ec88be98a07b5cdc849fe36376420c692d31abaedde6c84b186064736f6c63430008130033a2646970667358221220584553e9915428db9db889c8974239a7a6460416074b266ca9c35d204876c1c264736f6c63430008130033608060405234801561001057600080fd5b50600080546001600160a01b03191660849081178255604051606b60248201819052604482018490529291839183908190839060640160408051601f198184030181529181526020820180516001600160e01b031663b613002b60e01b1790525161007b91906100d6565b6000604051808303816000865af19150503d80600081146100b8576040519150601f19603f3d011682016040523d82523d6000602084013e6100bd565b606091505b50509050806100cb57600080fd5b505050505050610105565b6000825160005b818110156100f757602081860181015185830152016100dd565b506000920191825250919050565b610efc806101146000396000f3fe608060405234801561001057600080fd5b50600436106101da5760003560e01c80638b28294711610104578063b1d606f0116100a2578063c1d17c9c11610071578063c1d17c9c146103ac578063c767f36f146103bf578063dfcefbbc146103d2578063f2f37665146103e557600080fd5b8063b1d606f014610381578063b4a1054c14610394578063bb07e85d1461039c578063bdadcf6f146103a457600080fd5b80639507d39a116100de5780639507d39a1461034b578063a65142591461035e578063ad1b9f1414610371578063af31b18b1461037957600080fd5b80638b282947146103045780638ec828ed14610317578063911f6fe01461033857600080fd5b806352efea6e1161017c57806379fc09a21161014b57806379fc09a21461029b5780637d7b0099146102ae5780637dacda03146102d957806386039d78146102ee57600080fd5b806352efea6e1461026557806357771a231461026d5780635ea59e09146102805780636b1773f91461029357600080fd5b806314506524116101b8578063145065241461022f5780632b969048146102375780634f558e791461023f578063512a0d041461025257600080fd5b806302078386146101df57806306ed323c146102075780630be0c6d514610227575b600080fd5b6101f26101ed366004610b88565b6103f8565b60405190151581526020015b60405180910390f35b61021a610215366004610b88565b610448565b6040516101fe9190610bf1565b61021a610499565b61021a6104a8565b61021a6104e7565b6101f261024d366004610b88565b61051f565b6101f2610260366004610ca7565b610548565b6101f261059c565b6101f261027b366004610b88565b6105da565b6101f261028e366004610d2f565b610603565b61021a610649565b6101f26102a9366004610d2f565b610681565b6000546102c1906001600160a01b031681565b6040516001600160a01b0390911681526020016101fe565b6102ec6102e7366004610d2f565b6106c7565b005b6102f66106dc565b6040519081526020016101fe565b6102ec610312366004610d64565b610730565b61032a610325366004610b88565b61073f565b6040516101fe929190610dab565b6102f6610346366004610d2f565b610791565b61021a610359366004610b88565b6107ee565b61032a61036c366004610d2f565b610817565b6102f66108ba565b6102f66108f1565b6101f261038f366004610d2f565b610928565b6102f661096e565b61021a6109ce565b6101f26109d8565b61032a6103ba366004610d2f565b610a0f565b61032a6103cd366004610d2f565b610a27565b6101f26103e0366004610d64565b610a7e565b6101f26103f3366004610dc6565b610ab3565b6000806104408360405160240161041191815260200190565b60408051601f198184030181529190526020810180516001600160e01b0316630103c1c360e11b179052610a27565b509392505050565b606060006104918360405160240161046291815260200190565b60408051601f198184030181529190526020810180516001600160e01b03166301bb4c8f60e21b179052610a27565b949350505050565b60606104a3610649565b905090565b6040805160048152602481019091526020810180516001600160e01b0316636ac5db1960e01b1790526060906000906104e090610a27565b9392505050565b6040805160048152602481019091526020810180516001600160e01b031663f889794560e01b1790526060906000906104e090610a27565b60008061052b83610448565b9050805160000361053f5750600092915050565b6104e081610681565b60008061059285858560405160240161056393929190610e20565b60408051601f198184030181529190526020810180516001600160e01b031663e5e214b560e01b179052610a27565b5095945050505050565b6040805160048152602481019091526020810180516001600160e01b0316632977f53760e11b17905260009081906105d390610a27565b5092915050565b6000806105e683610448565b905080516000036105fa5750600092915050565b6104e081610928565b6000806104408360405160240161061a9190610bf1565b60408051601f198184030181529190526020810180516001600160e01b0316634a21473560e11b179052610a27565b6040805160048152602481019091526020810180516001600160e01b0316630be0c6d560e01b1790526060906000906104e090610a27565b600080610440836040516024016106989190610bf1565b60408051601f198184030181529190526020810180516001600160e01b0316636b19df9b60e01b179052610a27565b6106d86106d26109ce565b82610ab3565b5050565b6040805160048152602481019091526020810180516001600160e01b03166310c073af60e31b179052600090819061071390610a27565b9150508080602001905181019061072a9190610e63565b91505090565b61073a8282610a7e565b505050565b600060606107888360405160240161075991815260200190565b60408051601f198184030181529190526020810180516001600160e01b0316632d883a7360e01b179052610a27565b91509150915091565b6000806107d7836040516024016107a89190610bf1565b60408051601f198184030181529190526020810180516001600160e01b0316630488fb7f60e51b179052610a27565b915050808060200190518101906104e09190610e63565b60606000806107fc8461073f565b91509150811561080d579392505050565b5060609392505050565b600080546040516060916001600160a01b031690610839908590602401610bf1565b60408051601f198184030181529181526020820180516001600160e01b031663a651425960e01b1790525161086e9190610e7c565b6000604051808303816000865af19150503d80600081146108ab576040519150601f19603f3d011682016040523d82523d6000602084013e6108b0565b606091505b5091509150915091565b6040805160048152602481019091526020810180516001600160e01b0316630fbdb69960e11b179052600090819061071390610a27565b6040805160048152602481019091526020810180516001600160e01b031663af31b18b60e01b179052600090819061071390610a27565b6000806104408360405160240161093f9190610bf1565b60408051601f198184030181529190526020810180516001600160e01b0316632aa304f560e11b179052610a27565b6040805160048152602481019091526020810180516001600160e01b0316632d28415360e21b17905260009081906109a590610a27565b9150506000815111156109c6578080602001905181019061072a9190610e63565b600091505090565b60606104a3610b04565b6040805160048152602481019091526020810180516001600160e01b031663bdadcf6f60e01b17905260009081906105d390610a27565b60006060610788836040516024016106989190610bf1565b600080546040516060916001600160a01b031690610a49908590602401610bf1565b60408051601f198184030181529181526020820180516001600160e01b031663c767f36f60e01b1790525161086e9190610e7c565b600080610a8a84610448565b90508051600003610a9f576000915050610aad565b610aa98184610ab3565b9150505b92915050565b600080610afb8484604051602401610acc929190610e98565b60408051601f198184030181529190526020810180516001600160e01b031663456a75fb60e11b179052610a27565b50949350505050565b60408051600481526024810182526020810180516001600160e01b031663bb07e85d60e01b179052905160609160009160a091610b4091610e7c565b6000604051808303816000865af19150503d8060008114610b7d576040519150601f19603f3d011682016040523d82523d6000602084013e610440565b506060949350505050565b600060208284031215610b9a57600080fd5b5035919050565b60005b83811015610bbc578181015183820152602001610ba4565b50506000910152565b60008151808452610bdd816020860160208601610ba1565b601f01601f19169290920160200192915050565b6020815260006104e06020830184610bc5565b634e487b7160e01b600052604160045260246000fd5b600082601f830112610c2b57600080fd5b813567ffffffffffffffff80821115610c4657610c46610c04565b604051601f8301601f19908116603f01168101908282118183101715610c6e57610c6e610c04565b81604052838152866020858801011115610c8757600080fd5b836020870160208301376000602085830101528094505050505092915050565b600080600060608486031215610cbc57600080fd5b833567ffffffffffffffff80821115610cd457600080fd5b610ce087838801610c1a565b94506020860135915080821115610cf657600080fd5b610d0287838801610c1a565b93506040860135915080821115610d1857600080fd5b50610d2586828701610c1a565b9150509250925092565b600060208284031215610d4157600080fd5b813567ffffffffffffffff811115610d5857600080fd5b610aa984828501610c1a565b60008060408385031215610d7757600080fd5b82359150602083013567ffffffffffffffff811115610d9557600080fd5b610da185828601610c1a565b9150509250929050565b82151581526040602082015260006104916040830184610bc5565b60008060408385031215610dd957600080fd5b823567ffffffffffffffff80821115610df157600080fd5b610dfd86838701610c1a565b93506020850135915080821115610e1357600080fd5b50610da185828601610c1a565b606081526000610e336060830186610bc5565b8281036020840152610e458186610bc5565b90508281036040840152610e598185610bc5565b9695505050505050565b600060208284031215610e7557600080fd5b5051919050565b60008251610e8e818460208701610ba1565b9190910192915050565b604081526000610eab6040830185610bc5565b8281036020840152610ebd8185610bc5565b9594505050505056fea2646970667358221220197e1c6daef035f473bfd5f149c21fd1eaed13c8c9ab2668d1b77321ab247e4064736f6c63430008130033608060405234801561001057600080fd5b5060405161054938038061054983398101604081905261002f916100d9565b604051602481018390526044810182905260009060859060640160408051601f198184030181529181526020820180516001600160e01b0316630719126760e21b1790525161007e91906100fd565b6000604051808303816000865af19150503d80600081146100bb576040519150601f19603f3d011682016040523d82523d6000602084013e6100c0565b606091505b50509050806100d1576100d161012c565b505050610142565b600080604083850312156100ec57600080fd5b505080516020909101519092909150565b6000825160005b8181101561011e5760208186018101518583015201610104565b506000920191825250919050565b634e487b7160e01b600052600160045260246000fd5b6103f8806101516000396000f3fe608060405234801561001057600080fd5b50600436106100625760003560e01c80631003e2d21461006757806327ee58a61461008f5780636ac5db19146100a25780636d4ce63c146100b85780637d7b0099146100c0578063f8897945146100e0575b600080fd5b61007a610075366004610361565b6100e8565b60405190151581526020015b60405180910390f35b61007a61009d366004610361565b61018a565b6100aa6101e0565b604051908152602001610086565b6100aa610279565b6100c8608581565b6040516001600160a01b039091168152602001610086565b6100aa610326565b60008060856001600160a01b03168360405160240161010991815260200190565b60408051601f198184030181529181526020820180516001600160e01b0316630801f16960e11b1790525161013e919061037a565b6000604051808303816000865af19150503d806000811461017b576040519150601f19603f3d011682016040523d82523d6000602084013e610180565b606091505b5090949350505050565b60008060856001600160a01b0316836040516024016101ab91815260200190565b60408051601f198184030181529181526020820180516001600160e01b03166313f72c5360e11b1790525161013e919061037a565b60408051600481526024810182526020810180516001600160e01b0316636ac5db1960e01b1790529051600091829160859161021b9161037a565b600060405180830381855afa9150503d8060008114610256576040519150601f19603f3d011682016040523d82523d6000602084013e61025b565b606091505b509150508080602001905181019061027391906103a9565b91505090565b60408051600481526024810182526020810180516001600160e01b0316631b53398f60e21b1790529051600091829182916085916102b7919061037a565b600060405180830381855afa9150503d80600081146102f2576040519150601f19603f3d011682016040523d82523d6000602084013e6102f7565b606091505b5091509150811561031d578080602001905181019061031691906103a9565b9250505090565b60009250505090565b60408051600481526024810182526020810180516001600160e01b031663f889794560e01b1790529051600091829160859161021b9161037a565b60006020828403121561037357600080fd5b5035919050565b6000825160005b8181101561039b5760208186018101518583015201610381565b506000920191825250919050565b6000602082840312156103bb57600080fd5b505191905056fea264697066735822122007737fc0449df8ccca504f1f30b13b8940bb442b42bbdd2277b42a5472a2192164736f6c63430008130033608060405234801561001057600080fd5b50600080546001600160a01b03191660849081178255604051606b60248201819052604482018490529291839183908190839060640160408051601f198184030181529181526020820180516001600160e01b031663b613002b60e01b1790525161007b91906100d6565b6000604051808303816000865af19150503d80600081146100b8576040519150601f19603f3d011682016040523d82523d6000602084013e6100bd565b606091505b50509050806100cb57600080fd5b505050505050610105565b6000825160005b818110156100f757602081860181015185830152016100dd565b506000920191825250919050565b611164806101146000396000f3fe608060405234801561001057600080fd5b50600436106101f05760003560e01c80638ec828ed1161010f578063bb07e85d116100a2578063c767f36f11610071578063c767f36f146103f3578063dfcefbbc14610406578063f2f3766514610419578063fe092b0e1461042c57600080fd5b8063bb07e85d146103bd578063bdadcf6f146103c5578063c1d17c9c146103cd578063c2bc2efc146103e057600080fd5b8063af31b18b116100de578063af31b18b14610387578063b1d606f01461038f578063b4a1054c146103a2578063b9caebf4146103aa57600080fd5b80638ec828ed14610338578063911f6fe014610359578063a65142591461036c578063ad1b9f141461037f57600080fd5b8063512a0d04116101875780636b1773f9116101565780636b1773f9146102f457806379fc09a2146102fc5780637d7b00991461030f57806386039d781461032257600080fd5b8063512a0d04146102b357806352efea6e146102c657806357771a23146102ce5780635ea59e09146102e157600080fd5b806335e3b25a116101c357806335e3b25a1461024d5780634223b5c2146102625780634dfefc4b1461028d5780634f558e79146102a057600080fd5b806302078386146101f557806306ed323c1461021d578063145065241461023d5780632b96904814610245575b600080fd5b610208610203366004610cdb565b61043f565b60405190151581526020015b60405180910390f35b61023061022b366004610cdb565b61048f565b6040516102149190610d44565b6102306104e0565b61023061051f565b61026061025b366004610d84565b610557565b005b610275610270366004610cdb565b61059e565b6040516001600160a01b039091168152602001610214565b61020861029b366004610dbb565b610609565b6102086102ae366004610cdb565b610639565b6102086102c1366004610e79565b610662565b6102086106b6565b6102086102dc366004610cdb565b6106f4565b6102086102ef366004610f01565b61071d565b610230610763565b61020861030a366004610f01565b61079b565b600054610275906001600160a01b031681565b61032a6107e1565b604051908152602001610214565b61034b610346366004610cdb565b610835565b604051610214929190610f36565b61032a610367366004610f01565b610887565b61034b61037a366004610f01565b6108e4565b61032a610987565b61032a6109be565b61020861039d366004610f01565b6109f5565b61032a610a3b565b6102606103b8366004610dbb565b610a9b565b610230610ac7565b610208610ad6565b61034b6103db366004610f01565b610b0d565b6102086103ee366004610dbb565b610b25565b61034b610401366004610f01565b610b7a565b610208610414366004610f51565b610bd1565b610208610427366004610f98565b610bf8565b61020861043a366004610cdb565b610c49565b6000806104878360405160240161045891815260200190565b60408051601f198184030181529190526020810180516001600160e01b0316630103c1c360e11b179052610b7a565b509392505050565b606060006104d8836040516024016104a991815260200190565b60408051601f198184030181529190526020810180516001600160e01b03166301bb4c8f60e21b179052610b7a565b949350505050565b6040805160048152602481019091526020810180516001600160e01b0316636ac5db1960e01b17905260609060009061051890610b7a565b9392505050565b6040805160048152602481019091526020810180516001600160e01b031663f889794560e01b17905260609060009061051890610b7a565b6105998260405160200161056b9190610ff2565b60408051601f1981840301815282825284151560208401529101604051602081830303815290604052610bf8565b505050565b6000806105aa8361048f565b90506000805b60148110156105fe576105c4816008611025565b8382815181106105d6576105d661103c565b01602001516001600160f81b031916901c9190911790806105f681611052565b9150506105b0565b5060601c9392505050565b60006106338260405160200161061f9190610ff2565b60405160208183030381529060405261079b565b92915050565b6000806106458361048f565b905080516000036106595750600092915050565b6105188161079b565b6000806106ac85858560405160240161067d9392919061106b565b60408051601f198184030181529190526020810180516001600160e01b031663e5e214b560e01b179052610b7a565b5095945050505050565b6040805160048152602481019091526020810180516001600160e01b0316632977f53760e11b17905260009081906106ed90610b7a565b5092915050565b6000806107008361048f565b905080516000036107145750600092915050565b610518816109f5565b600080610487836040516024016107349190610d44565b60408051601f198184030181529190526020810180516001600160e01b0316634a21473560e11b179052610b7a565b6040805160048152602481019091526020810180516001600160e01b0316630be0c6d560e01b17905260609060009061051890610b7a565b600080610487836040516024016107b29190610d44565b60408051601f198184030181529190526020810180516001600160e01b0316636b19df9b60e01b179052610b7a565b6040805160048152602481019091526020810180516001600160e01b03166310c073af60e31b179052600090819061081890610b7a565b9150508080602001905181019061082f91906110ae565b91505090565b6000606061087e8360405160240161084f91815260200190565b60408051601f198184030181529190526020810180516001600160e01b0316632d883a7360e01b179052610b7a565b91509150915091565b6000806108cd8360405160240161089e9190610d44565b60408051601f198184030181529190526020810180516001600160e01b0316630488fb7f60e51b179052610b7a565b9150508080602001905181019061051891906110ae565b600080546040516060916001600160a01b031690610906908590602401610d44565b60408051601f198184030181529181526020820180516001600160e01b031663a651425960e01b1790525161093b91906110c7565b6000604051808303816000865af19150503d8060008114610978576040519150601f19603f3d011682016040523d82523d6000602084013e61097d565b606091505b5091509150915091565b6040805160048152602481019091526020810180516001600160e01b0316630fbdb69960e11b179052600090819061081890610b7a565b6040805160048152602481019091526020810180516001600160e01b031663af31b18b60e01b179052600090819061081890610b7a565b60008061048783604051602401610a0c9190610d44565b60408051601f198184030181529190526020810180516001600160e01b0316632aa304f560e11b179052610b7a565b6040805160048152602481019091526020810180516001600160e01b0316632d28415360e21b1790526000908190610a7290610b7a565b915050600081511115610a93578080602001905181019061082f91906110ae565b600091505090565b610ac381604051602001610aaf9190610ff2565b6040516020818303038152906040526109f5565b5050565b6060610ad1610c57565b905090565b6040805160048152602481019091526020810180516001600160e01b031663bdadcf6f60e01b17905260009081906106ed90610b7a565b6000606061087e836040516024016107b29190610d44565b6000806000610b5284604051602001610b3e9190610ff2565b604051602081830303815290604052610b0d565b915091508115610b7057808060200190518101906104d891906110e3565b5060009392505050565b600080546040516060916001600160a01b031690610b9c908590602401610d44565b60408051601f198184030181529181526020820180516001600160e01b031663c767f36f60e01b1790525161093b91906110c7565b600080610bdd8461048f565b90508051600003610bf2576000915050610633565b6104d881845b600080610c408484604051602401610c11929190611100565b60408051601f198184030181529190526020810180516001600160e01b031663456a75fb60e11b179052610b7a565b50949350505050565b6000806000610b5284610835565b60408051600481526024810182526020810180516001600160e01b031663bb07e85d60e01b179052905160609160009160a091610c93916110c7565b6000604051808303816000865af19150503d8060008114610cd0576040519150601f19603f3d011682016040523d82523d6000602084013e610487565b506060949350505050565b600060208284031215610ced57600080fd5b5035919050565b60005b83811015610d0f578181015183820152602001610cf7565b50506000910152565b60008151808452610d30816020860160208601610cf4565b601f01601f19169290920160200192915050565b6020815260006105186020830184610d18565b80356001600160a01b0381168114610d6e57600080fd5b919050565b8015158114610d8157600080fd5b50565b60008060408385031215610d9757600080fd5b610da083610d57565b91506020830135610db081610d73565b809150509250929050565b600060208284031215610dcd57600080fd5b61051882610d57565b634e487b7160e01b600052604160045260246000fd5b600082601f830112610dfd57600080fd5b813567ffffffffffffffff80821115610e1857610e18610dd6565b604051601f8301601f19908116603f01168101908282118183101715610e4057610e40610dd6565b81604052838152866020858801011115610e5957600080fd5b836020870160208301376000602085830101528094505050505092915050565b600080600060608486031215610e8e57600080fd5b833567ffffffffffffffff80821115610ea657600080fd5b610eb287838801610dec565b94506020860135915080821115610ec857600080fd5b610ed487838801610dec565b93506040860135915080821115610eea57600080fd5b50610ef786828701610dec565b9150509250925092565b600060208284031215610f1357600080fd5b813567ffffffffffffffff811115610f2a57600080fd5b6104d884828501610dec565b82151581526040602082015260006104d86040830184610d18565b60008060408385031215610f6457600080fd5b82359150602083013567ffffffffffffffff811115610f8257600080fd5b610f8e85828601610dec565b9150509250929050565b60008060408385031215610fab57600080fd5b823567ffffffffffffffff80821115610fc357600080fd5b610fcf86838701610dec565b93506020850135915080821115610fe557600080fd5b50610f8e85828601610dec565b60609190911b6bffffffffffffffffffffffff1916815260140190565b634e487b7160e01b600052601160045260246000fd5b80820281158282048414176106335761063361100f565b634e487b7160e01b600052603260045260246000fd5b6000600182016110645761106461100f565b5060010190565b60608152600061107e6060830186610d18565b82810360208401526110908186610d18565b905082810360408401526110a48185610d18565b9695505050505050565b6000602082840312156110c057600080fd5b5051919050565b600082516110d9818460208701610cf4565b9190910192915050565b6000602082840312156110f557600080fd5b815161051881610d73565b6040815260006111136040830185610d18565b82810360208401526111258185610d18565b9594505050505056fea264697066735822122070050d4b1c783e9a2d2e4f767f0941898c5e054100388056853b00a7f722181a64736f6c63430008130033",
  "linkReferences": {},
  "deployedLinkReferences": {},
  "immutableReferences": {},
  "inputSourceName": "project/contracts/CLOB.sol",
  "buildInfoId": "solc-0_8_19-8b49eb48e25c63da3892d6733cc93fc408bc8c0a"
}